:02000002D0002C
:1040000000400D0034520D00000006000C000501B8
:084010000401BD0B00000000DB
:04401800EC4F0D005C
:10401C0009480A49884208B505D0094A824202D0AB
:10402C00121A00F09BFF0748074A0021121A00F0F1
:10403C00A3FF014808BD00BFCCE50320A4510D002F
:10404C0034E6032034E60320F0E7032070B5074E76
:10405C00074C00F07DFEA41BA4080025A54200D14E
:10406C0070BD56F8043B98470135F7E774510D00C5
:10407C0098510D0000F04AB808B500F065F8BDE89D
:10408C00084000F027BE00F033BA00F039BA0078CF
:10409C00B0FA80F04009704701230370704710B5E7
:1040AC000446006808B100F02BFA204610BD0368E6
:1040BC00C9B29B68184710B5062000F0E3FE044611
:1040CC0028B100F00BFF0121FFF7F1FF10BD00F04C
:1040DC0005FF2146F8E708B500F000FF03685B69AF
:1040EC009847C0B2302805D10021BDE80840072010
:1040FC0000F0AFBE312805D03F2805D1BDE80840FF
:10410C00FFF7D9BF0121F0E708BD000008B5012178
:10411C00072000F08DFE0021062000F089FE00F043
:10412C00DDFE2A2100F0A4FA00F0D8FE044900F0CC
:10413C00A2FA00F0D3FEBDE80840024900F09FBA95
:10414C00E3400D00C3400D007047000010B5002186
:10415C000A4C012000F048F900232360A380A371CE
:10416C000320A3F58033A36000F036F92046044AFF
:10417C000449BDE8104000F0D9BE00BF38E603206A
:10418C0034E60320AB400D0008B5024B1B685B6C9A
:10419C00019308BD4802030008B5024B1B689B6CD9
:1041AC00019308BD4802030008B5024B1B685B680D
:1041BC00019308BD1802030008B5024B1B685B692C
:1041CC00019308BD1802030008B5024B1B689B68DD
:1041DC00019308BD2C02030008B5024B1B68DB6879
:1041EC00019308BD2C02030008B5024B1B681B6928
:1041FC00019308BD2C02030008B5024B1B685B69D8
:10420C00019308BD2C02030008B5024B1B68DB6848
:10421C00019308BD2802030008B5024B1B681B6AFA
:10422C00019308BD2802030008B5024B1B685B6AAA
:10423C00019308BD2802030008B5024B1B689B6A5A
:10424C00019308BD2802030008B5024B1B68DB6A0A
:10425C00019308BD2802030008B5024B1B681B6BB9
:10426C00019308BD2802030008B5024B1B685B6B69
:10427C00019308BD2802030008B5024B1B689B6B19
:10428C00019308BD2802030008B5024B1B68DB6BC9
:10429C00019308BD2802030008B5024B1B681B6C78
:1042AC00019308BD2802030008B5024B1B685B692B
:1042BC00019308BD6402030008B5024B1B689B68A0
:1042CC00019308BD6802030008B5024B1B68DB684C
:1042DC00019308BD6802030008B5024B1B68DB693B
:1042EC00019308BD3002030008B5024B1B681B6A22
:1042FC00019308BD3002030008B5024B1B681B6814
:10430C00019308BD3C02030008B5024B1B68DB6837
:10431C00019308BD3C02030008B5024B1B681B69E6
:10432C00019308BD3C02030008B5024B1B685B6996
:10433C00019308BD3C02030008B5024B1B689B6946
:10434C00019308BD3C02030008B5024B1B68DB69F6
:10435C00019308BD3C02030008B5024B1B681B6AA5
:10436C00019308BD3C02030008B5024B1B689B6A15
:10437C00019308BD3C02030008B5024B1B681B6887
:10438C00019308BD4C02030008B5024B1B681B6966
:10439C00019308BD4C02030008B5024B1B685B6916
:1043AC00019308BD4C02030008B5024B1B689B69C6
:1043BC00019308BD4C02030008B5024B1B68DB6976
:1043CC00019308BD4C02030008B5024B1B681B6A25
:1043DC00019308BD4C02030008B5024B1B685B68D7
:1043EC00019308BD2002030008B5024B1B68DB6A71
:1043FC00019308BD2002030008B5034B1B68D3F8DA
:10440C008830019308BD00002002030008B5034B5F
:10441C001B68D3F89430019308BD00002002030000
:10442C0008B5024B1B68DB6B019308BD440203000B
:10443C0008B5024B1B685B68019308BD4002030082
:10444C0008B5024B1B689B68019308BD4002030032
:10445C0008B5024B1B68DB68019308BD40020300E2
:10446C0008B5024B1B681B69019308BD4002030091
:10447C0008B5024B1B685B69019308BD4002030041
:10448C0008B5024B1B689B69019308BD40020300F1
:10449C0008B5024B1B68DB69019308BD40020300A1
:1044AC0008B5024B1B681B6A019308BD4002030050
:1044BC0008B5024B1B681B6B019308BD400203003F
:1044CC0008B5024B1B685B6B019308BD40020300EF
:1044DC0008B5024B1B681B6C019308BD400203001E
:1044EC0008B5024B1B685B6C019308BD40020300CE
:1044FC0008B5024B1B681B68019308BD1C02030026
:10450C0008B5024B1B685B68019308BD1C020300D5
:10451C0008B5024B1B685B6C019308BD1C020300C1
:10452C0010B50446006808B1FFF736FE204610BDF2
:10453C0010B58368044613B1032201469847204600
:10454C0010BD000010B5064C002320462360FFF779
:10455C001BFE2046034A0449BDE8104000F0E6BCAF
:10456C0044E6032034E603202D450D00002240686C
:10457C001146FFF795BF002240681146FFF7A0BF18
:10458C0040680022FFF794BF4068002281F00101CF
:10459C00FFF77EBF002340681A461946FFF770BF2D
:1045AC00002340681A461946FFF762BF0022406894
:1045BC001146FFF755BF002240681146FFF740BF78
:1045CC00406800220221FFF743BF002340681A46CF
:1045DC00FFF72EBF024B03225A60024A1A60704743
:1045EC0048E6032008500D007047F8B506461546FE
:1045FC000C468F18BC4206D0336814F8011B9B681C
:10460C0030469847F6E72846F8BD007C0022FFF7B5
:10461C0003BE007C0021FFF707BE007C0021FFF7E2
:10462C000BBE007C0021FFF70FBE007C0021FFF7C2
:10463C0013BE10B51421044600F07DFC204610BDBD
:10464C0010B54FF47A73044608460021C4E90113EF
:10465C00034B236020741146FFF71EFE204610BD4D
:10466C0044500D000A46007C00230121FFF7CCBD0D
:10467C00C9B2FFF7F7BF007C0022FFF7FDBD007C3D
:10468C000022FFF701BE704710B51821044600F058
:10469C0052FC204610BDF0B5037D062B8DB00E46A6
:1046AC0000F104074FF0000412D000F1080515F8D2
:1046BC00011D0A22304600F046F9AF42044419D0DD
:1046CC00002CF4D02E21304600F03AF90444EEE7E9
:1046DC002F236A4639460A208DF80040FFF7E4FD87
:1046EC00684600F075FC33680246DB686946304664
:1046FC009847044620460DB0F0BD000010B5054BA0
:10470C000446112240F8043B002100F035FC204601
:10471C0010BD00BF6C500D000346074A10B543F89E
:10472C00042B01F1100251F8044B43F8044B914255
:10473C00F9D10A781A7010BD6C500D0010B59DF8A7
:10474C00084044EA032343EA024242EA016104239B
:10475C004160037510BD000013B5054B0360CB78A9
:10476C0000938B784A780978FFF7E8FF02B010BD08
:10477C006C500D00014B024A1A60704750E6032042
:10478C0078500D00002340681A46FFF751BE406870
:10479C0000220221FFF75CBE002240681146FFF7A1
:1047AC004FBE002240681146FFF75ABE00234068F6
:1047BC001A461946FFF75CBE002340681A46194694
:1047CC00FFF75EBE40680021FFF782BE4068002103
:1047DC00FFF786BE4068002281F00101FFF758BE4A
:1047EC0040680022FFF764BE002240681146FFF7C4
:1047FC0067BE002240681146FFF752BE2DE9F04318
:10480C00002495B016460D460746FFF777FF214664
:10481C0018220EA8009400F0AFFB4023CDE90C3415
:10482C0021466B460CAA3046FFF74EFD0446002885
:10483C004CD1024601216868FFF712FE0221804626
:10484C0022466868FFF70CFE009E81462146002E2A
:10485C003CD000293AD17368022B03D00A2B11D01B
:10486C00F669F4E7B8F1000F0AD0716906A80431B3
:10487C0007ADFFF771FF0FCD3C1D0FC42B682370E4
:10488C004146EDE7B9F1000F01D14946E8E77469FB
:10489C00102201A800F070FB06238DF8143001AD36
:1048AC0004F108031834186859682A4603C20833FF
:1048BC00A3421546F7D101A906A807ADFFF72CFFB7
:1048CC000FCD3C1D0FC42B682370DEE70098FFF75B
:1048DC00F3FC384615B0BDE8F0830000024B034AE8
:1048EC001A6000225A60704754E6032084500D0071
:1048FC00F8B506460D468F180024BD420CD033681F
:10490C0015F8011B9B6830469847031E01DB1C44BD
:10491C00F3E7002C08BF1C462046F8BD13B504462F
:10492C00084659B1019100F053FB23680199DB68EB
:10493C000246204602B0BDE81040184702B010BD38
:10494C0003689B68184730B58BB000238DF8243072
:10495C00012A98BF0A2209AC0D46B1FBF2F101FB0A
:10496C00125303F0FF03092B94BF30333733DBB200
:10497C00AA4204F8013DEFD92146FFF7CFFF0BB057
:10498C0030BD10B50446FFF7D3FD204610BD000026
:10499C000348044A04490023836000F0C7BA00BFEF
:1049AC005CE6032034E603208F490D0010B5044665
:1049BC0008462170FFF790FC00236360204610BD71
:1049CC0010B5094B094C022200201A60084B2060DC
:1049DC00A080A071A360FFF7FFFC2046054A0649A2
:1049EC00BDE8104000F0A2BA78E603206CE6032084
:1049FC000000FFFF34E60320AB400D00024B1A68A9
:104A0C00024B1A60704700BFCCE503207CE6032004
:104A1C0070474174704708B5007CFFF7A5FC20EA8D
:104A2C00E07008BD08B5007CFFF776FC20EAE0706A
:104A3C0008BD08B5007CFFF77FFC40EAE07008BDBC
:104A4C0008B5007CFFF770FC40EAE07008BD007C04
:104A5C00FFF77ABC37B5457C04462DB1207C03B0FA
:104A6C00BDE83040FFF750BC007C0191FFF77CFCA7
:104A7C0000280199F2DC284603B030BD10B5142192
:104A8C00044600F058FA204610BD000010B54FF057
:104A9C00000C0446084611464FF47A72C4E901C270
:104AAC00044A22600122207462741A46FFF724FC27
:104ABC00204610BDDC500D0013B50E4C2178BFF311
:104ACC005B8F11F0010112D120460191FFF7DFFA43
:104ADC00019960B1084A094B0948FFF7D7FF2046F6
:104AEC00FFF7DAFA074A0849054800F01FFA0448AC
:104AFC0002B010BD80E6032084E6032008E7032003
:104B0C008CE7032034E603201D4A0D0041747047E6
:104B1C00704708B50021007CFFF746FC40EAE070C6
:104B2C0008BD08B50121007CFFF73EFC40EAE070AF
:104B3C0008BD08B5007CFFF72FFC20EAE07008BD2B
:104B4C0008B5007CFFF720FC20EAE07008BD13B527
:104B5C000446007C0191FFF71FFC0028019901DC41
:104B6C00607C20B1207CFFF727FC20EAE07002B0CB
:104B7C0010BD007CFFF728BC10B51421044600F0D2
:104B8C00DAF9204610BD000010B54FF47A730446D4
:104B9C0008460021C4E90113044B2360012320744F
:104BAC0063741146FFF7E8FB204610BD0C510D0055
:104BBC0010B514220446002100F0DEF9204610BD89
:104BCC0010B5104C88B003A8FFF7F2FF2178BFF3A3
:104BDC005B8F11F0010111D120460191FFF757FABB
:104BEC00019958B103AA0848FFF7CEFF2046FFF7FA
:104BFC0053FA064A0649044800F098F9024808B0EE
:104C0C0010BD00BFA0E70320A4E7032034E6032077
:104C1C001D4B0D00002240681146FFF721BC0022FD
:104C2C0040681146FFF73CBC002240681146FFF774
:104C3C0047BC40680022FFF73BBC4068002281F073
:104C4C000101FFF725BC002340681A461946FFF7FF
:104C5C0017BC002340681A461946FFF709BC00220E
:104C6C0040681146FFF7ECBB406800220221FFF7B9
:104C7C00EFBB002340681A46FFF7DABB024B042255
:104C8C005A60024A1A607047B8E703203C510D0085
:104C9C00014B1860704700BFD0E5032008B50B4BE3
:104CAC0043B1FFF78DFF03681B699847002801DDAE
:104CBC00AFF30080064B43B1FFF7FEFE03681B69A0
:104CCC009847002801DDAFF3008008BD000000000C
:104CDC000000000008B5FFF7E1FFFFF76DFA014B8C
:104CEC00186008BDD4E703200248034A0349121A8E
:104CFC0000F034B900F4032004F40320A0510D009B
:104D0C0007B5002300931A466FF07701FFF77EFB7F
:104D1C0003B05DF804FB000007B543880A2B08D0EC
:104D2C00502B0BD1094B1B684BB103B05DF804EB56
:104D3C001847FFF7E5FF03B05DF804FB0023009371
:104D4C001A466FF07701FFF761FBF4E7C4E7032025
:104D5C0038B5124C1248134D0021FFF7D9FB2368CC
:104D6C00AB42114B0CBF012200221A7002D0FFF78C
:104D7C00BBFF2560FFF718FA044600F005F90B4B52
:104D8C0013B12046AFF3008000210848FFF748FB21
:104D9C00BDE8384006480021FFF72EBB00F4032085
:104DAC009D4C0D001E1C279AC0E70320000000003C
:104DBC00254D0D00232813B502D9002002B010BDDB
:104DCC00A0F10B03022B1AD8174C2178BFF35B8F81
:104DDC0011F001010BD120460191FFF758F901990F
:104DEC0028B11248FFF7E2FD2046FFF755F90F4BAB
:104DFC001878FFF779FA0028DFD10120DEE70128C7
:104E0C0009D800F06BF80021007CFFF72DFA80F038
:104E1C000100C0B2D2E709380128EED8FFF74CFEEA
:104E2C00007CFFF799FAF2E7C8E70320CCE70320F0
:104E3C00232838B504460D460AD8FF2908D0FFF7B9
:104E4C00B9FF28B129462046BDE83840FFF7BCB968
:104E5C0038BD38B504460D46FFF7BEF9FF2810D013
:104E6C00062804D84D2323FA00F0C30709D42046A2
:104E7C00FFF7A0FF28B129462046BDE83840FFF7D0
:104E8C00B3B938BD10B50446FFF7A6F9031FDBB262
:104E9C00012B08D92046FFF78DFF20B12046BDE835
:104EAC001040FFF7A9B9002010BD000038B5002351
:104EBC002025438014230446038085600561064940
:104ECC00284600F03AF804496060284600F035F8AE
:104EDC00E060204638BD00BF70510D0030B50F4D5D
:104EEC002978BFF35B8F11F0010487B013D12846EA
:104EFC00FFF7CDF878B101A8FFF7D8FF01AA21463A
:104F0C000748FFF79DFB2846FFF7C6F8054A0649F8
:104F1C00034800F00BF8024807B030BDD8E7032077
:104F2C00DCE7032034E60320F5450D000B46014673
:104F3C00184600F005B8FFF7A8B8FFF7A4B80000B2
:104F4C0010B5054C13462CB10A4601460220AFF3AE
:104F5C00008010BD2046FCE7000000000A4491428E
:104F6C0000F1FF3300D1704710B511F8014B03F875
:104F7C00014F9142F9D110BD02440346934200D136
:104F8C00704703F8011BF9E738B50D4B1D68AB6B87
:104F9C0004467BB91820FFF7ABFA0A4A0A4BA86300
:104FAC00C0E90023094B83600B238381012200237A
:104FBC00C0E90423AB6B00221C615A6138BD00BFF1
:104FCC00D0E503200E33CDAB34126DE6ECDE0500DC
:104FDC00034613F8012B002AFBD1181A013870472D
:104FEC001D400D0059400D0081400D0085400D0005
:104FFC00000000000000000000000000D7450D007C
:10500C00CD450D00C3450D00B9450D00AD450D0056
:10501C00A1450D00D1470D00D9470D0095450D0058
:10502C008D450D0083450D0079450D0009480D0097
:10503C000000000000000000F5450D003F460D008B
:10504C0017460D00F7450D001F460D0027460D00B5
:10505C002F460D0037460D00000000000000000038
:10506C00A3460D0093460D0095460D00617070002F
:10507C00000000000000000091470D009B470D0050
:10508C00A5470D00AF470D00B9470D00C5470D00F2
:10509C00D1470D00D9470D00E1470D00ED470D003C
:1050AC00F5470D00FF470D0009480D0025592D252A
:1050BC006D2D25645425483A254D3A2553257A0003
:1050CC0061736374696D65000000000000000000EE
:1050DC001D4A0D00894A0D00614A0D00FD480D0066
:1050EC00314A0D004D4A0D003F4A0D005B4A0D0040
:1050FC001F4A0D00234A0D000000000000000000B4
:10510C001D4B0D00854B0D005B4B0D00FD480D003C
:10511C004D4B0D001F4B0D002F4B0D007F4B0D0009
:10512C003F4B0D00194B0D0000000000000000006B
:10513C007F4C0D00754C0D006B4C0D00214C0D007F
:10514C005F4C0D00534C0D00D1470D00D9470D009D
:10515C00474C0D003F4C0D00354C0D002B4C0D00F9
:10516C0009480D000000000059410D0051450D008B
:10517C00E1450D0081470D00E9480D009D490D00EA
:10518C00CD490D00094A0D00894C0D0000000000AE
:04519C00000000000F
:0451A000000000000B
:1051A400CC500D00D4E503200000000000000000F6
:1051B40000000000000000000000000000000000EB
:1051C40000000000000000000000000000000000DB
:1051D40000000000000000000000000000000000CB
:1051E40000000000000000000000000000000000BB
:1051F40000000000000000000000000000000000AB
:085204000000000000000000A2
:10520C00FFFFFFFF00000102030405060708090A5F
:10521C000B0C0D0E0F101112131415161718191A5A
:08522C001B1C1D1E1F202800A1
:045234007856341262
:04000003D000401CCD
:00000001FF
